:060000000A128A110C280F
:10000800FE00030EF1000A08F2000A128A114C28B9
:100018000A128A110F28F301F40183010A128A11C6
:100028007828831603178801890120308316031363
:100038008500033086001830870088018312031377
:10004800850186018701831603130F088F3940380D
:100058008F000F148B170B178B150B101614961493
:10006800811315149514831203131408F0390438F6
:1000780094001412941683160313141794138312FE
:1000880003138C11831603138C158B170B17080099
:100098000B1C4F2850286228831203130618552872
:1000A80056285B280130F0007008F407612886188C
:1000B8005E285F2861280130F4020B1083120313B5
:1000C8008C1D6728682871281308F0007008F30051
:1000D80074089300730888008C1172088A00710EE6
:1000E8008300FE0E7E0E09000A128A1115200A12DC
:0A00F8008A117D280A128A110C28D3
:08400000FF3FFF3FFF3FFF3FC0
:04400E00D420FF3F7C
:00000001FF
